:020000040000fa
:080000001011040000000000d3
:020000040000fa
:102220006ff720000eff27000e018800000000005d
:102230000c000700a03d2500010020000f00070052
:10224000000020000000e000020032000000020058
:10225000000000006c530200000000000040da00a3
:102260000000fe00200e20000000e000020032000e
:10227000002020009001880000000600a1028800d4
:10228000800078000000eb001a003700e280400078
:1022900054a0b4009101ba00e280400054a0b40000
:1022a0009102ba00e280400054a0b4000002eb00aa
:1022b000472bde00f507b200a6018800602ce10084
:1022c00008003a000049eb000201e8000200390072
:1022d0003420ec0002f0a0008301e900f9ff3e0089
:1022e000040037006128e100010032000082eb00a9
:1022f000040007001101ba000200e000e3ff3a0009
:102300000000060004d0a300e20f49001c003900c1
:10231000810278003549ba000201e8000200390064
:102320003420ec0002f0a0008301e9000f0032002d
:102330002549ba000201e800020039003420ec000f
:1023400002f0a0008301e900080032000400e00070
:102350000600320015c9ba000201e8000200390087
:102360003420ec0002f0a0008301e9008180e80045
:1023700054a0b4000300e000e2ff3a0000000600b1
:102380009102ba00055978008301e900f7ff320095
:10239000c82ade00055978008301e900f3ff320006
:1023a0000400e000f1ff320011d9ba00eeff37005f
:1023b000ec510400000000005a4d04000000000031
:1023c0002c4d040000000000c44d0400000000007b
:1023d000924d040000000000ac4804000000000022
:1023e0006848040000000000cc4804000000000021
:1023f000042e040000000000462e0400000000002f
:10240000282e040000000000382f04000000000007
:1024100003f0a200889fbe008a9fbe008c1f780038
:10242000f7000700fe0033006450e1004f00320067
:102430006420e1005200320003826c0007003b0080
:102440000905d0000306d000820f54000c065d0081
:10245000020039000200320089017800030678008a
:102460008582550004003d000003fd008103fd004e
:102470008502ea008b854200840f720002003b0057
:1024800060001000e08018006011b8000005eb004b
:102490007a28e1000a00390006007800c75ddd00f7
:1024a000f707b200878075002d0037008281710028
:1024b0000a017800610560008180d1000080d300ae
:1024c0008502e900f9ff3b000604400087844800cc
:1024d00002003b0060041400e0841c000988a30093
:1024e000070032008a8171008281710061016400fd
:1024f0008904d1000884d3008b05e8001700370059
:102500000978a30013003a000b00e0001300340028
:102510008b05e9000804440089844c000a447400d7
:102520000978a3000d003a000b00e000070034001a
:102530008b05e9000804440089844c0001003a003e
:102540000b0020000978a300f7ff32000001eb0028
:1025500002003700828171000a0178006d000700d7
:102560000cf0a70001f0a000b60037006420e100e5
:1025700002003a00838f6c00b60033000801be00f1
:102580000200be00af003700889fbe008a9fbe00d9
:102590008c1f78009a000700a100330003866c00ae
:1025a0006450e1002e0032006420e100330032006c
:1025b0006150e1002f0032006120e1003100320063
:1025c00085855500eb07b0000900200008042000b5
:1025d000050037000804440089844c000a003100db
:1025e0000603430087834b000001530081815b0099
:1025f000f8ff33000203be000800a00008044400f6
:1026000089844c00f6ff3900c639dd008301730070
:1026100001003200130020008904d1000884d30097
:102620000998a300050032000800a7000300a000dd
:102630008904d1000884d3008b05e8008904d10007
:102640000884d3000001eb000281d20031000700b2
:1026500001f0a1000cf0a70001f0a0007900370004
:102660006420e1007b0032000801be000200be00d1
:10267000f7ff37006120e100760032006000b8000b
:10268000f3ff37000000200001f82700f0ff3700bb
:1026900014002000b6003700f4ff2f00b40037000c
:1026a0000001be00410007000470a70003f0a10074
:1026b00003f8a30013003a006509b10010003200ce
:1026c000090035006928e1000200350001002800fa
:1026d0000000050000004000818048008502e900fc
:1026e000fcff3a0000000600f88f420005003500ac
:1026f0008100d1000080d3008502e800fcff3a0091
:10270000000006008000eb00000005006011b8002a
:10271000b200370081002000618055000b003d00b1
:102720000b00200061fe2f000100e1001d003400bd
:1027300082817100610164008904d1000884d300a2
:102740000000e800faff3a00710020006100640018
:1027500003007000020060000900320061044400c0
:10276000e0844c000988a500050032008b05e800d4
:102770006808e10002003a008904d1000884d3000f
:10278000f20f20000258e10005003d00c75ddd00aa
:10279000f907b20089807500080078000000060083
:1027a0000bf827008b00780000000500c70ade0048
:1027b000f107b200f50fb20008003200e1cf42008d
:1027c000020032000170a00024000500810f70009b
:1027d000010032000408050044000500810f70006c
:1027e00002003a00140005008502e90000004000e4
:1027f00081c04800fcff3b000170a00024000500e0
:102800000004be00e9ff07000003be000405be008f
:102810000200be00e5ff0700844f750000000600bf
:102820000200be006450e100050036006420e100b3
:10283000020036000968a30001003a000800be004b
:102840000160a0004f0678004f05be004f04be0097
:1028500000000600f0ff2f00f1ff2700f9ff37000e
:10286000889fbe008a9fbe008c1f7800e4ff07008f
:10287000ebff330003866c006450e100240032005b
:102880006420e100270032006150e10022003200a4
:102890006120e100210032008b854200eb07b1008e
:1028a0000134b800003ab8000804420089844a00a4
:1028b000013ab8000030b8008880400009014a00a1
:1028c00004003300000040008180480002014900fc
:1028d0008b05e900c909dd008301700001003200a9
:1028e00013002000c814de004814dd004709de0094
:1028f0001200b200c808de000884700085ff0700df
:1029000001f0a1000cf0a70001f0a000cdff3700fe
:102910006120e100cfff32000801be000200be00ce
:10292000f7ff37006150e100fcff3a00c9ff3700b4
:102930006022b800060220000000d0008180d20092
:102940000482d2008582d2000000a0000202520060
:1029500083825a00030031000202420083824a004f
:102960000000a1000603e900f3ff3a0000000600a2
:10297000889fbe008a9fbe00841f7800a0ff0700ca
:102980004f00780011003300f0ff2f00838f6c00a0
:1029900006003b00040565000a00a7000800370098
:1029a00009f0a6001000200008003700820f540034
:1029b000838f5c00030039001000200001003e00fe
:1029c0000000200009f0a7000000ea004f05be004b
:1029d0004f04be000000e00000000600889fbe001b
:1029e0008a9fbe00008270000402710004827100a0
:1029f000260032000004be000200be006011b800d4
:102a00006b092000950220000182cf000a003900e6
:102a10000541b1000082cf00070039000541b10037
:102a20000982cf00040039000541b1000882cf00bf
:102a3000010039000541b100054252001200320088
:102a40000a003b0082817100610164008100d100b5
:102a50000080d3008984d3000884d3008b05e8006c
:102a60000442e800f7ff3a0007003700080444007a
:102a700089844c0000004800818048008b05e900f3
:102a80000442e900f9ff3a0022ff07004f05be00ab
:102a90004f04be0000000600889fbe000004be0078
:102aa000060037000000fb00890078001a000700cc
:102ab000e10f4000050032000804e80018407800eb
:102ac000e04f5000f7ff3a000000eb004f04be005b
:102ad00000000600881f780061f52000eeff070067
:102ae0000004780061f52000a00020000a00070023
:102af000080078004f047800000006000000fa008b
:102b000068815700cfb8970060f52000eb00070000
:102b10000080fa0000000600889fbe0001047800d3
:102b2000b8009000628160008084eb003c003200bd
:102b3000810178000320b2001801900002003a00e1
:102b4000e00f510036003a000190a00031049800d7
:102b500080047800f90fb200e00f510002003a0043
:102b600028009000000c7800ea8f540006003a001c
:102b7000010078000008b20003003a0088007800e5
:102b8000d0002000e4ff070018009000d80090005b
:102b9000810f50000b0032000000e8001004980084
:102ba0001800780009487800000ce80010c0b30055
:102bb00001f7200080487800ea8f540018003a009e
:102bc0000500370088007800094078004a070700b0
:102bd0008004780012003700380090000010b20026
:102be0000f00320018019000a800900048009000eb
:102bf000920d070098009000810f500004003200f1
:102c0000380090000003b300300498008084eb008b
:102c10000000eb001004980028009000000c7800e1
:102c2000090078004f04be0000000600889fbe0027
:102c30008a9fbe000084fb00d1c6b300814f5000c4
:102c4000210036004b062000110009000b84d8003b
:102c500081057800720040004300dd00e9d42000c7
:102c6000008044006022b8000600200007fe230018
:102c70005001be004000be0008090700aa00200065
:102c800000027800811f7800110009008a85d800b1
:102c90000002fd00cf007800690242004322dd00ff
:102ca000048244005403be004402be00fb08070037
:102cb000809fbe00110009000a84d800010478003a
:102cc0004f00be0010003700ea4f500013003600de
:102cd000a9002000110009000984d800010478002f
:102ce000690040004300dd00e9d42000008044007a
:102cf0006022b8000600200007fe23005001be003d
:102d00004000be00e50807004344dd00888444001d
:102d10003902be002903be00080037004344dd002d
:102d2000e0d42000080440006022b8000600200023
:102d300007fe23003800be002801be00d7080700a8
:102d40004f05be004f04be0000000600889fbe0075
:102d50008a9fbe00d1c6b300e04f500025003d0061
:102d60000040ea000004fb00814f50000b003400db
:102d700042062000110009000204d800010078007a
:102d8000a9002000110009000900d80069004000d6
:102d90004300dd00ead4200023003700ea4f500052
:102da00011003400a2002000110009000204d80024
:102db0000104780080007800e9804000c308dd004d
:102dc000e0d42000810040004344dd0008004000c2
:102dd0003002be002003be005101be004100be0013
:102de000ae080700320037004344dd00e0d4200085
:102df0002c0037000004fb00814f50001c00340001
:102e000042062000110009000204d80001007800e9
:102e1000a9002000110009000900d8006900400045
:102e20004300dd00eac92000000045003002be007a
:102e30002003be008b0920008a8545003b00be00b0
:102e40002b01be0095080700809fbe0011000900fd
:102e50000904d800010478004f00be004344dd009f
:102e6000080545003a02be002a03be00dcff370019
:102e7000ea4f500009003400a200200011000900b0
:102e80000204d8000104780080007800e980400046
:102e9000c308dd00e0c92000caff37004344dd005d
:102ea000e0c92000080440003800be002801be0030
:102eb0004f05be004f04be00000006002f05b00005
:102ec000889fbe008a9fbe008c9fbe008e1f780028
:102ed00000037800f1a79f0082af9f000000eb0085
:102ee000f0b79f000607780077063700ffa097002d
:102ef0008100e800f1a79f0052c2b30082cf5200c8
:102f000006003a000004eb0006c3b30003c2b3009e
:102f1000b1c2b3007fa09700120037003e019000bd
:102f20000204b200040032009e0178008549780056
:102f3000030fe800070037000501fb008e00780052
:102f400002007800f4fe070000017800e10f410064
:102f50005d0632007fb197000201e800f2b79f00e2
:102f60005906370090427800d4c2b30084cf520093
:102f70000b0032000001e80084cf520005003c0045
:102f800083cf52000900320081cf52000e003a0078
:102f90000800370086cf52000b003a0007003700c8
:102fa0000830a0000000e800eeff37000800a00095
:102fb000030037000810a000010037000820a0001f
:102fc00002007800e7ff3700f0a79f00e2016400ed
:102fd000010032000800a100e80164000100320095
:102fe0000820a1008501fb000303b100e98f510017
:102ff0000d003e00000020007fa197006a00b9008c
:103000000003b1009200fb0001004000d200fb0071
:103010000103b100e98f5000f8ff360090b79f0020
:10302000f2a79f000c0037000003eb0096b79f004b
:10303000a3c2b30083cf520007003a008fab9700c2
:10304000c704780087af9f0099b79f007fa59700be
:103050000a05e800faa79f00e3c2b300ffa59700a6
:103060009bcf11001f003a0008e0a000e8b79f00c6
:10307000e4c151008b05e800fba79f001b407800ce
:10308000834f500003003200000020008b017800c5
:103090000c0037000fa99700c201780082af9f0093
:1030a00093af9f007fa297000402e800f4a79f005f
:1030b000100037006a00b9000003b10002004000b0
:1030c0008301e8001301fb0001fd2f008280400016
:1030d000e98f5000f7ff360090af9f00f3a79f00e5
:1030e0000400370008c0a000e8b79f008002eb0092
:1030f00095af9f00ccc6b3006fb19700ffa19700ba
:1031000033447800a8679f008c4f54002b00320096
:10311000e2b79f00f3a79f00c3c6b300834f5400dc
:1031200014003c004cc6b3008c4f5400e600320043
:1031300009003c00f4c15100834f54002d003200bf
:10314000ebc14100834f5400b1003200e04f540006
:10315000e2053200d300370063c6b300834f54004a
:103160001c003200e3c14100834f5400cd003a00ff
:10317000d50037003cc7b3008c4f54002400320008
:1031800007003c00f3c6b300834f54001500320023
:103190008341e800834f5400c2003a001500370015
:1031a00053c7b300834f5400c4003200e3c1410051
:1031b000834f5400bb003a001100370070006100db
:1031c0000100280001003a00010120000101710006
:1031d000cbff37006fb3970006a0a000e6b79f00b3
:1031e000b9003700efb397000760a000e7b79f0072
:1031f000b50037006fb497000850a000e8b79f00f3
:10320000efb497000970a000e9b79f00ae00370047
:103210000fad97004a0478008aaf9f00a8b79f00bf
:10322000e00f540002003a0020f42000a0b79f00f5
:103230008000eb00b1b79f002fb09700bfb09700a0
:103240004fb19700dfb19700010037008500e8001b
:103250008102780061427800e04f5200fbff3a00a3
:10326000a0b79f00b1b79f00c2b79f00d3b79f0020
:103270009faa9700e08f5200050032003fb39700ed
:10328000868f52000200310085037800b7b79f0097
:10329000bfb297000006eb001fb49700850f5400e3
:1032a0000100360005065400efb4970068846400fe
:1032b0002e003a008c0178000dc2b30010003700d8
:1032c0003e0090000004b200040032001e007800ae
:1032d0000d487800000fe800050037008e007800e8
:1032e000000220000cfe0700e10f40000300320046
:1032f0007fb597000a05e800fab79f008c017800b7
:103300000c06e900e08f5100edff3a00170037008e
:103310003e0090000004b200090032009e017800d7
:10332000080178003240780080497800030fe800f7
:1033300002047800e04f50000a003a001100370004
:10334000080178003200fb00020478008e0078004b
:1033500086bf9f00f0fd07000fbb9700e10f400004
:10336000080032008d06e80006003700ffb697001f
:10337000080378002fb49700bfb497004fb59700ab
:10338000dfb59700090078008004e900e00f5000e5
:10339000dfff3a00fdb79f00a8b79f00b9b79f00b5
:1033a000cab79f00dbb79f0006047800e00f540007
:1033b00045053200110037003e0090000004b200c5
:1033c000040032001e0078000d487800000fe8006d
:1033d000050037008e00780000022000cefd0700b7
:1033e000e10f400003003200ffb097008100e800c9
:1033f000f1b79f0008067800010037000dc2b30046
:103400000c04e900e00f5600ebff3a002e053700f0
:103410000fa997004204780082af9f00080278004d
:10342000cfa2de000503780086037800d4af9f00aa
:10343000e5af9f00f6af9f0087b79f000605be006f
:103440000404be004844de00c84add00088472005f
:10345000a8679f006fb397007006630009003200f1
:10346000e04f540007003200e14f440005003200f5
:10347000b8679f00c4679f0027002000b7b79f0070
:10348000040037002fdc9700b8679f001900200068
:10349000b9b79f003afa2f000a854700aab79f00e4
:1034a00073ff37002bfa2f008b854700abb79f00c7
:1034b00010002000b0b79f006dff3700efb09700fd
:1034c000010cb300e1b79f00087020006fb19700b6
:1034d000080661009602320008002100080461001d
:1034e000020032006300200093af9f006fb297008c
:1034f00070046200090032000fa897004005be006a
:103500004004be0080af9f00d8af9f00e9af9f008e
:10351000faaf9f008bb79f000a0037000fa99700f2
:103520004200be0082af9f005e0607000002be00a0
:103530000203be00d4af9f00e5af9f00f6af9f002f
:1035400087b79f006022b8006033b8005fa897007b
:10355000efa897007fa997008fb19700a3050700f8
:1035600080027800e08f52000c003d005fac9700b5
:10357000efac97007fad97008fb597000bf0a200de
:10358000d8af9f00e9af9f00faaf9f008bb79f00b5
:10359000efb497003900b300e9b79f000004eb00d7
:1035a000b8979f006022b8006033b8005fa897000a
:1035b000efa897007fa997008fb19700ef0507004c
:1035c00080027800888f52003b0032005fa897008d
:1035d000efa897007fa997008fb1970026070700f3
:1035e00062fa2f000f014100a90607003f939700e0
:1035f0000603e9006333b900a8002000809fbe00e5
:10360000110009000803d800000378004f00be0035
:10361000b6979f00e00f530002003d000603e9004b
:10362000b6979f003f9697008c41ea0003407800d0
:10363000c6fd07005faa9700efaa97007fab97002f
:103640008fb39700950607000002be000203be007c
:10365000a4a79f00b5a79f00c6a79f00d7a79f005c
:103660006022b8000600200007ff23005f05070066
:1036700080027800e08f520002003d000c04e90057
:103680000c0037006022b80006002000470224002a
:103690002fa09700bfa097004fa19700dfa1970030
:1036a0005705070080027800e08f520002003500c5
:1036b0000c04e800b8979f009faa9700f88f52006b
:1036c0000f003c000540780058fd07000002be00d6
:1036d0000203be005fa89700efa897007fa997009c
:1036e0008fb19700c40407000004be000205be00ad
:1036f000d8af9f00e9af9f00faaf9f008bb79f0044
:103700003f969700e90f560016003c006022b80073
:103710006033b8005fa89700efa897007fa99700d3
:103720008fb197009505070080027800e08f520066
:10373000350032005fa89700efa897007fa9970097
:103740008fb19700f6050700e00f5000e08f58009a
:10375000e00f5900e08f59002b003a00e10f5600ae
:10376000290034000400200005002e00b6e02200ed
:10377000170124002fa09700bfa097004fa197002a
:10378000dfa197001905070080027800e08f520042
:1037900002003d0073045600010037007204560019
:1037a000b8979f006f60970068fd07000002be0099
:1037b0000203be00a4a79f00b5a79f00c6a79f0055
:1037c000d7a79f005fa89700efa897007fa9970051
:1037d0008fb197000f050700d1050700a0b79f0024
:1037e000b1b79f00c2b79f00d3b79f006000b80079
:1037f0006011b800d0af9f00e1af9f00f2af9f0013
:1038000083b79f00190037005fa89700efa89700c3
:103810007fa997008fb19700c1050700a0b79f004f
:10382000b1b79f00c2b79f00d3b79f00ed05070057
:103830000002be000203be005fa89700efa8970039
:103840007fa997008fb19700890607000004be008a
:103850000205be00d8af9f00e9af9f00faaf9f00fe
:103860008bb79f000004eb00b8979f0013c0b30014
:10387000a3679f0001e82000100037000200fb0052
:103880004300dd00008040003002be002003be0087
:103890002fb49700bfb497004fb59700dfb59700de
:1038a0000440e10005c8e10006d0e10007d8e100ce
:1038b000050039000241e800a2679f002f619700d0
:1038c000f44f5100edff3a0002437800bf93970098
:1038d0009fb49700878354001fad97008a835300dd
:1038e0000603fb000683530096b79f00e00f5500c8
:1038f000020032000603e90096b79f00efb597007b
:1039000063836500030032001fb097000000e900e8
:1039100090b79f00efb097006483600048003200ca
:103920006284600061866000e00f5400190032007c
:103930003e0390000604b200080032009e067800a4
:10394000b8c2b300e00f56000100320008c4e8001e
:10395000884e78000d0fe8000a003700d8022000da
:10396000e00f560001003a000884e9008e0078005c
:103970000800780068fc070080027800e18f4200b0
:10398000270032007fb197000201e800f2b79f00e4
:1039900023003700e00f5600210032003e03900064
:1039a0000604b200050032001e04780003c2b30012
:1039b000034c7800080fe800060037008e007800fe
:1039c0000002200054fc070080027800e18f4200d2
:1039d00013003200ffb197008301e800f3b79f00a6
:1039e0000f0037003e0090000004b20004003200d7
:1039f0001e0078000c487800000fe8000500370032
:103a00008e0078000003200043fc0700e10f400017
:103a1000010032008d06e8000804e90003003700c9
:103a20000cc3b3001fb49700ffb69700e00f54001b
:103a3000ecff3c0098b79f00fdb79f007a0037006d
:103a40006fb297006803620017003a000f0037005a
:103a50003e0090000004b200040032001e00780016
:103a60000c487800000fe800050037008e00780051
:103a70000002200028fc0700e10f40000100320096
:103a80008d06e8000804e900030037000cc2b3000b
:103a90001fb49700ffb69700e00f5400ecff3c0006
:103aa00098b79f00fdb79f00efb297006284620055
:103ab00061866200e00f5400190032003e0390005e
:103ac0000604b200080032009e067800b8c2b300b7
:103ad000e00f56000100320008c4e800884e78006c
:103ae0000d0fe8000a003700d8022000e00f560052
:103af00001003a000884e9008e0078000800780090
:103b000005fc070080027800e18f42004600320089
:103b10007fb397000603e800f6b79f004200370026
:103b2000e00f5600400032003e0390000604b20051
:103b3000050032001e04780003c2b300034c780075
:103b4000080fe800060037008e0078000002200011
:103b5000f1fb070080027800e18f42003200320062
:103b6000ffb397008703e800f7b79f002e003700e8
:103b70003e0190000204b2000300fb00e00f510080
:103b8000120032001e0678004300dd00008046006f
:103b90003002be002003be000800be000a01be00c5
:103ba00074060700a4002000050020006033b80060
:103bb000770607000203be000002be0000c3b30088
:103bc000004e42000c0fe800130037004300dd00f8
:103bd000008046003002be002003be000800be0088
:103be0000a01be0063060700a400200005002000b3
:103bf0006033b800660607000203be000002be0084
:103c00000403b0008e00780004007800c2fb0700b7
:103c1000e10f400009003200ffb097008100e8008a
:103c2000f1b79f00050037000de820002fb4970082
:103c3000bfb497004fb59700dfb597002f6097008e
:103c40008041e900a3679f00e04f5000c8ff3a00a1
:103c5000110037003e0090000004b2000400320062
:103c60001e0078000c487800000fe80005003700bf
:103c70008e00780000032000a7fb0700e10f400042
:103c8000010032000804e8003f9097000000e900be
:103c9000b0979f00020037000cc3b3007fb49700b9
:103ca0003f909700e00f5000eaff3c00f8b79f00fc
:103cb0001fa9970023c1b300f20f510001003c007f
:103cc000afd19700a3679f002f6497008802fb0085
:103cd0001faa97008502520095af9f00e04f540045
:103ce00011003200be0290000504b200050032004f
:103cf0001e047800e3c2b300034c7800080fe8000c
:103d0000060037008e007800e002200082fb0700ea
:103d100080027800e18f420003003200ffb297007a
:103d20008502e800f5b79f002f60970007fc0700a9
:103d30000002be000203be005fa89700efa8970034
:103d40007fa997008fb19700d4040700740407007f
:103d5000a0b79f00b1b79f00c2b79f00d3b79f0025
:103d60000de820003f003700be0190000304b200c0
:103d70000401fb00e08f5100120032001e067800a3
:103d80004311dd00028146003202be002203be0064
:103d90002fb09700bfb097004fb19700dfb19700e9
:103da000f4050700a4002000050020006033b800df
:103db000f705070009c3b300094e40000c0fe800e7
:103dc000160037004311dd00028146003202be00ba
:103dd0002203be002fb09700bfb097004fb19700ed
:103de000dfb19700e3050700a400200005002000d4
:103df0006033b800e60507000203be000002be0003
:103e00000403b0008e0078000400780042fb070035
:103e100000017800e10f4100030032007fb59700f8
:103e20000a05e800fab79f00af6597000b01fb0099
:103e30004311dd00028146003202be002203be00b3
:103e40002fb09700bfb097004fb19700dfb1970038
:103e5000cf050700a0b79f00b1b79f00c2b79f0072
:103e6000d3b79f002f6197000242e900a4679f002b
:103e7000e04f5100bcff3a000f0037003e009000b9
:103e80000004b200040032001e0078000c487800e4
:103e9000000fe800050037008e00780000032000c6
:103ea0001dfb0700e10f4000010032008d06e80015
:103eb0000804e900030037000cc3b3001fac9700ef
:103ec000ffb69700e00f5400ecff3a00fdb79f00eb
:103ed000efb29700688162007b0232001fb3970047
:103ee000e00f53007802340008c2b30006067800e1
:103ef0003e0090000004b200040032001e00780072
:103f000008487800000fe800050037008e007800b0
:103f10000002200000fb0700e10f4000010032001a
:103f20008d06e8000c06e900f1ff3a006502370053
:103f3000efb29700050cb20043003a00efb39700d0
:103f4000e08f530005003d000fa897004005be001c
:103f50004004be0080af9f0010003700efb0970014
:103f6000f0826000120032000faa97004401be00e8
:103f700084af9f00a29f9f00b39f9f0014049000f6
:103f80004fc4de00c89f9f00d89f9f002f9c9700c2
:103f9000bf9c97004f9d9700df9d9700a8b79f009b
:103fa000b9b79f00cab79f00dbb79f000b0037006f
:103fb0008fac9700c902780089af9f000500780098
:103fc000cf80de000101780082017800a0b79f0059
:103fd000b1b79f00c2b79f00d3b79f002fb2970021
:103fe000bfb297004fb39700dfb39700e00f5200c6
:103ff000e08f5a00e00f5b00e08f5b0038003d006f
:10400000efb297003500b300e5b79f006044b800f9
:104010006055b8002fb09700bfb097004fb1970020
:10402000dfb197000000540081805c0002015d0058
:1040300083815d00a0b79f00b1b79f00c2b79f000a
:10404000d3b79f0026003700efb09700e08f5000f5
:1040500005003d000fac97004803be004802be00bb
:1040600088af9f000e003700efb49700f082640025
:10407000100032000fa897004005be0080af9f00df
:10408000ea979f00fb979f008c9f9f009c9f9f003b
:104090006f929700ff9297000f9b97009f9b97004e
:1040a000a4b79f00b5b79f00c6b79f00d7b79f00c2
:1040b0000b0037000fab9700c602780086af9f0059
:1040c00005047800090020000a0020000b002000f1
:1040d000a8b79f00b9b79f00cab79f00dbb79f0082
:1040e0009fac9700e08f54000d003a001a002000aa
:1040f0009aaf9f002fb09700bfb097004fb19700c5
:10410000dfb19700e00f5000e08f5800e00f59003a
:10411000e08f5900020032008000eb0091af9f0059
:104120006fb19700020cb200d2af9f0008042000cc
:10413000880f51003f00320003003c00e00f5100a7
:10414000080032005600370005082000dfa997005c
:10415000858f51001b003200050c2000858f510017
:104160004f003a0013c0b300a3679f0001e820008e
:10417000100037000200fb004300dd00008040001b
:104180003002be002003be002fb49700bfb49700da
:104190004fb59700dfb597000440e10005c8e10086
:1041a00006d0e10007d8e1003d0039000241e800f7
:1041b000a2679f002f619700f44f5100edff3a0076
:1041c0003700370013c0b300a3679f000801200029
:1041d000090020006055b800120037002fb2970088
:1041e000bfb297004fb39700dfb397000820e100fc
:1041f00009a8e1000ab0e1000bb8e100280039008d
:10420000450020000804d0008984d2000a85d2002d
:104210008b85d2008502e900faff3a000040e800f1
:10422000a0679f002f609700f04f5000ebff3a000f
:104230001b00370013c0b300a3679f008800200055
:10424000090020006055b800120037002fb2970017
:10425000bfb297004fb39700dfb397000820e1008b
:1042600009a8e1000ab0e1000bb8e1000c00390038
:10427000350020000804d0008984d2000a85d200cd
:104280008b85d2008502e900faff3a000040e80081
:10429000a0679f002f609700f54f5000ebff3a009a
:1042a0002f6397000604fb009fab9700870f540015
:1042b00002003d00a7679f00040037009fac9700f5
:1042c000888f540001003d0098af9f001fb59700f4
:1042d000e00f550005003200efb59700e38265005e
:1042e000020032000a05e9009ab79f000500240089
:1042f0006fb0970085026000090032009fb0970000
:104300001fa99700828f5000030034008280500064
:1043100091b79f00020037008001eb0093b79f0028
:104320002f6297000404fb008002eb00e5a79f00ca
:104330001fb39700880f5300020034000804530095
:10434000e8a79f00efb39700e482630049003200c2
:104350006283630007047800e1036400e00f530008
:1043600019003200be0290000504b20008003200bd
:104370001e067800b6c2b300e08f53000100320081
:1043800006c3e800064e78000c0fe8000a0037006c
:10439000d6022000e08f530001003a000683e900b6
:1043a0008e00780006007800dbf9070080027800b4
:1043b000e18f420017003200ffb497008904e80043
:1043c000f9b79f0013003700e08f5300110032004f
:1043d000be0290000504b200050032001e03780002
:1043e00003c2b300034b7800060fe8000600370055
:1043f0008e00780000022000c7f9070080027800d4
:10440000e18f4200030032007fb597000a05e80003
:10441000fab79f00efa59700e08f55000501320025
:104420000cc3b3000b047800ffb697003e00900069
:104430000004b200040032001e0078000c4878002e
:10444000000fe800050037008e0078000003200010
:10445000b1f90700e10f4000010032008d06e800cd
:104460000804e900f1ff3a00e8a79f00fdb79f00ac
:10447000f00037006fa09700e00f500017003200e7
:10448000efb09700e882600014003a000cc2b3005d
:1044900000047800ffb697003e0090000004b200d0
:1044a000040032001e0078000c487800000fe8007d
:1044b000050037008e0078000002200096f9070002
:1044c000e10f4000010032008d06e8000804e90019
:1044d000f1ff3a00e8a79f00fdb79f006fb197007a
:1044e00062036100e1036100e00f53001900320034
:1044f000be0290000504b200080032001e067800db
:10450000b6c2b300e08f53000100320006c3e800da
:10451000064e78000c0fe8000a003700d602200093
:10452000e08f530001003a000683e9008e00780016
:104530000600780078f9070080027800e18f4200d9
:10454000bc003200ffb197008301e800f3b79f0081
:10455000b8003700e08f5300b6003200be02900072
:104560000504b200050032001e03780003c2b30048
:10457000034b7800060fe800060037008e00780035
:104580000002200064f9070080027800e18f4200f9
:10459000a80032007fb297000402e800f4b79f0041
:1045a000a40037000e07e90000042000dfaa9700ee
:1045b000808f52007a00320003003c00e08f5200ee
:1045c0000800320086003700000820005fab97002b
:1045d000800f53005d003200000c2000800f53005c
:1045e0007f003a004370dd00efb39700e08f530087
:1045f00022003d0008e82000000044003002be0018
:104600002003be0094af9f00a5af9f00b6af9f00f0
:10461000c7af9f002fb09700bfb097004fb1970072
:10462000dfb19700d3030700a0679f000004fb00e1
:10463000cfc4de00090578008a0578001faa97001c
:10464000afaa97003fab9700cfab97000800be0022
:104650000a01be00330407002fb49700bfb49700cf
:104660004fb59700dfb597000004540081845c00cb
:1046700002055d0083855d001d003700df94970013
:10468000e08f54001f0032002fb69700bfb697008e
:104690000ae82000000045003004be002005be00ee
:1046a0000801be000c00be00a1f80700a0679f0033
:1046b0000000fb00cf80de000801be0019030700e8
:1046c0000001560081815e00e29f9f00f39f9f00e2
:1046d0008001eb0083a79f000002eb0094a79f00de
:1046e0006f9c9700ff9c97000fa597009fa59700d0
:1046f000a8b79f00b9b79f00cab79f00dbb79f005c
:104700000e00370009e82000690178002fb59700f6
:10471000811f7800110009000285d800cf007800c1
:10472000a2002000811f7800110009000280d8003b
:1047300001007800cf007800a0679f00af65970068
:104740000b43b000ab679f002500370004f2200048
:104750004f909700e00f500001003a0014f3200042
:104760004270dd002fb49700bfb497004fb597009b
:10477000dfb59700800278008502e900050033006c
:104780008b05d1000a85d3008984d3000884d30027
:10479000f9ff37006f006400644078000f003700b5
:1047a0006370b9002fb49700bfb497004fb597005e
:1047b000dfb59700000278000402e900050033002d
:1047c0008b05d1000a85d3008984d3000884d300e7
:1047d000f9ff3700674064000043b000a0679f0006
:1047e0009fb29700350090000004b200070032002d
:1047f000150178002f60970000497800820ae800d0
:10480000e04f500007003a00130037002f63970075
:104810000600fb009fb09700bff80700e10f4000c3
:104820000d003200ffb397008703e800f7b79f0041
:10483000090037006fb4970070046400d8979f0098
:10484000efb497000902b200c9979f000e057800e7
:104850009ab79f001faf9700e00f570051ff3a0033
:104860001fb79700efb5970068816500160032000a
:104870006fa09700e00f50001300340008c2b3008f
:1048800000067800ffb697003e0090000004b200da
:10489000040032001e00780008487800000fe8008d
:1048a000050037008e007800000220009af807000b
:1048b000e10f4000010032008d06e8000c06e9001f
:1048c000f1ff3a00fdb79f00ffa0970091427800ea
:1048d000a5679f00e0cf520084f93a007fb09700af
:1048e0004f0778004f06be004f05be004f04be00c4
:1048f0002f05b100000006000200fa00889fbe00ec
:10490000a0ff9f000104780038009000800078002c
:104910000104b20033003a00e200600005003a00f2
:104920000003b30030049800110498000080eb00ed
:104930002e003700d8049000e08f540006003a00a3
:1049400012002000e6805700480090003b06070058
:104950001904980023003700a8009000e08f500051
:1049600008003a0031f7200021049800010c78007b
:104970002100200051049800110498000030a0008c
:104980003004980018019000a800900048009000a2
:104990002a060700280090008080eb001104980090
:1049a000aff8970001487800000ce8002ff8970056
:1049b000ea4f50000b003a00380090000010b2009f
:1049c0000800320018019000a800900048009000f4
:1049d0001a0607000000eb0010049800a8009000e1
:1049e000010c7800aff897000100fb004f04be00f7
:1049f0000080fa00000006002800fa00889fbe0030
:104a00008a9fbe008c9fbe000706780087866900db
:104a10000c003b00030478008704780008f0a10034
:104a200009f0a100840f5000858f5800860f5900af
:104a3000890f5c00030033000cf0a20001003a0073
:104a40000cf0a100fe0007006400e1005f003200ee
:104a5000780147006408e100610032006c01470002
:104a6000748557003200be001201be003a04be0039
:104a70001a05be001e039000be0a90008503530075
:104a800006003d000004fd008104fd000205fd005c
:104a90008305fd008703ea00050378000df8a300f5
:104aa0000400320060041400e0841c0060051d0056
:104ab000e0851d006022b8007d0320000d38e10074
:104ac0008006eb000b0039004433dd00f300b20038
:104ad0008301730039003700848272000d02780070
:104ae000e10664008b85d1000a85d3008984d30058
:104af0000884d3008703e900f7ff3b00080040006b
:104b0000898048000a0149008b81490004003b006c
:104b100060001000e080180060011900e0811900b9
:104b20000358a300090032008d8272008482720053
:104b3000610260008301d1000281d3008180d30033
:104b40000080d3000603e8001b0037000348a300e1
:104b500017003a000600e000170034000603e900e1
:104b60000d00a300000048008180480002014900b8
:104b7000838149000348a3000f003a000600e000cb
:104b8000090034000603e90000004000818048006d
:104b9000020149008381490001003a000003eb0053
:104ba0000348a300f5ff32006022b800020037007e
:104bb00084827200618266007500070003f0a10024
:104bc0000cf0a70003f0a000b1003700640147001b
:104bd0006408e10002003a000df8a300a9003a00c1
:104be0003200be001201be00a90037008f1fd100a5
:104bf000020307008f87e9000000e00000000600c4
:104c0000809feb00fd0207008f87e9000000e000b5
:104c1000000006002800fa00889fbe008a9fbe00a0
:104c20008c9fbe0003866b00850007006400e100d6
:104c3000440032006408e1004a0032006100e100f3
:104c4000460032006108e10049003200ec064700ee
:104c50006000b8003d02be003d03be00f486570070
:104c60006011b8003d04be003d05be007d0320007c
:104c70000b0037000000a0008d06e9001300320091
:104c80000402420085824a0006034b0087834b00e2
:104c900000004000818048000201490083814900f2
:104ca0000802520089825a000a035b008b835b0072
:104cb000f0ff3b000802420089824a000a034b00d1
:104cc0008b834b008d06e900edff3a008482720071
:104cd00086827200f707b2008782720001003200fc
:104ce000150020001e0490003e0b900006035400a7
:104cf000e63fb0000368a300070032000000a700f1
:104d00000500a0008301d1000281d3008180d3007f
:104d10000080d3000603e8008301d1000281d300a4
:104d20008180d3000080d3000002eb000482d20017
:104d30001700070003f0a1000cf0a70003f0a0008b
:104d400053003700640247006408e1004d00320060
:104d50003400be003401be00f6ff37006108e100f8
:104d6000480032006011b8006000b800f1ff370061
:104d700003ff270002002000fbff3700801feb002d
:104d80009e0207008f87e9000000e0000000060097
:104d90001800200057002000080453000d003d00bb
:104da0000600200097fc2f000740e1001e003400a1
:104db00084827200610260008301d1000281d3000d
:104dc0008180d3000080d3000804e800f8ff3a0097
:104dd00047002000610460000504740004046400be
:104de0000d00320061004000e08048006001490091
:104df000e081490003b8a500070032000603e8007f
:104e00006538e10004003a008301d1000281d3003b
:104e10008180d3000080d300f87f20000830e100bb
:104e200003003500080378006000b8006011b80086
:104e30004433dd00f300b20083017300000006007c
:104e4000680447000294be000094be00fc044700c2
:104e50008694be008494be0009007800b00207006a
:104e600008007800ae02070099007800814f7000ba
:104e70000b003b000800be00890207004f00b10094
:104e800003003700f3ff2700f2ff2f006110b90085
:104e90004f06be004f05be004f04be000080fa0062
:104ea000000006008103780040f607000001be0004
:104eb0006000b8000478a30013003a006220e1000b
:104ec00015003e000d0039008301d1000281d3009e
:104ed0008180d3008301d1000281d3008180d3007f
:104ee0008301d1000281d3008180d3000538b00056
:104ef000c42add00f300b2008381720007f0a7002e
:104f000003f0a00000000600f3ff2700f2ff2f00cf
:104f10006110b900fbff370003ff2700f7ff3700e0
:104f20001400fa00889fbe008a9fbe008c9fbe00be
:104f30000004be000205be00680047000a90be00e3
:104f40000890be00760207000070a7000bf0a100d9
:104f50000bf8a30020003a009e0990000e09900073
:104f6000fe0090006e0090009e02900034432000ee
:104f700084825200c6ff32000a003c00b4fc2f00bd
:104f80000428e100140034008301d1000281d30021
:104f90008180d3000080d3008502e800faff3a0048
:104fa000bbff3700b40020000428e10007003c00ec
:104fb00000004000818048000201490083814900cf
:104fc0008502e900faff3a00b1ff3700030028002c
:104fd00002002000010037006011b8006000b80036
:104fe000abff3700889fbe00008270000402710092
:104ff000048271002400320036432000c5002000e6
:105000008383cf000a0039000541b1008283cf00bd
:10501000070039000541b1008183cf000400390049
:105020000541b1008083cf00010039000541b10086
:1050300085c353006022b800120032000a003b0012
:1050400084827200610260008301d1000281d3007a
:105050008180d3000080d3000603e8008743e80086
:10506000f7ff3a0007003700000040008180480049
:1050700002014900838149000603e9008743e900f2
:10508000f9ff3a0042ff07004f04be00000006008f
:10509000cd01070005097800000006002800fa008d
:1050a000889fbe008a9fbe008c9fbe0003866b0057
:1050b00063ff07000028a30064003a000128a30052
:1050c00067003a000008a30062003a000108a3004c
:1050d00065003a001e009000be0890008106400066
:1050e000ed3fb100f4805700ee019000111ab800b6
:1050f0008e099000311bb8009e099000311cb80049
:10510000511db800f485570046000700fe019000cd
:105110003a0007008b85e8003e0007008e099000ea
:1051200040000700ee019000340007008b85e80086
:10513000380007008e099000400007009e0990008b
:105140001b18b800890440000a854800fe01900041
:10515000340007008b85e80038000700ee0190005e
:10516000300007008e0990001b18b8008904400029
:105170000a8548000a98a30008003a000402420089
:1051800085824a0006034b0087834b0008044c00cd
:1051900089844c000a054d008d06e9008482720066
:1051a000850273004c3add00850272000100320076
:1051b00015002000443ade001400b2004538de003d
:1051c000cb45dd000b007000c540de00cb4ddd009f
:1051d0008b8070004549de00cb55dd000b0171006e
:1051e000c551de000d037800e9fe070003f0a100c1
:1051f0000cf0a70003f0a00025ff37001b18b80033
:105200008502400006834800e0834b0060044c00a8
:10521000070037001b18b8000603400087834800ca
:10522000faff37001b18b8008703400008844800c5
:10523000e0844c0060054d00000006001b18b8001b
:105240000804400089844800faff37000108a300e1
:105250000cff3a005800be005801be00e3ff3700c3
:105260000008a30007ff3a0009047800f9ff37009f
:1052700007f0a200e0fd37001400fa00889fbe008e
:105280008a9fbe008c9fbe000005be000206be00c5
:10529000680047000c90be000a90be00a001070005
:1052a0006400e1001a00320016003e006100e100d7
:1052b0001a0032006e049000fe0490000e0b900065
:1052c0009e0b90006011b8009e0590000b38b10055
:1052d000d501200082817100610164008703d10043
:1052e0000683d3008984d3000884d3008502e900b3
:1052f000f8ff3a0007f507000df0a70001f0a00045
:10530000e3fe3700f1ff2700f0ff2f00e0fe37003b
:1053100001f8270000002000f7ff37006000b80008
:10532000f5ff3700020ab900001bb9000200b800ff
:10533000810042008100430000000600889fbe00fb
:105340008a9fbe003004be002005be000404440055
:1053500085844c0006054d0087854d000898be00e9
:105360000a90be000440e10005c8e10006d0e1005b
:1053700007d8e10002003100680040001008e80092
:105380004f05be004f04be0000000600889fbe000f
:105390008a9fbe008c1f7800000678003c04be0087
:1053a0002c05be000400540085805c0006015d00f1
:1053b00087815d00009ebe00029ebe00100020009e
:1053c0000440e10005c8e10006d0e10007d8e10093
:1053d000010039000000eb001c0e10004f067800a1
:1053e0004f05be004f04be00000006001200fa0088
:1053f000889fbe008a9fbe008c9fbe000205be0033
:105400000004be00e4b79f00f5b79f0086bf9f0071
:1054100097bf9f000000eb00d0b79f00c0b79f0070
:10542000b0b79f00a0b79f0090b79f00000678001c
:10543000fd032000dfb197004fb0970003814100ca
:10544000bfb09700e08f510004003d002900070025
:105450007e805700b9ff07000300370025000700d2
:105460007e805700c9ff0700dfb09700e08f500033
:105470000700350014002000050020006033b8004c
:1054800008047200898472000a0573008b8573001a
:105490000c06e8008d0f5600e6ff3400e08f500048
:1054a00006003d006fb29700ffb297000fbb970058
:1054b0009fbb97007e805700a0ff07005fa8970062
:1054c000e00f500004003a001fb49700afb49700fb
:1054d0003fb59700cfb597000800be000a01be0097
:1054e0004f06be004f05be004f04be000080fa000c
:1054f00000000600cf01de0002817100b2b79f00fc
:105500004f09de000000400000007100a0b79f00be
:105510000fb097004f01de008180400081007100d4
:1055200091b79f007faa9700cf20de0000004000c7
:105530000080700080b79f000800be000a01be0016
:105540004f18de000402420000027200f4af9f0018
:105550000804440089844c000a054d008b854d00e9
:105560004fb29700dfb297006fb39700ffb3970079
:1055700000000600881f780018002000881f7800af
:105580009aff07008f87e9004f04780000000600ab
:10559000801feb0095ff07008f87e90000000600e1
:1055a000889fbe008a9fbe008c1f7800e00f5000cd
:1055b000e08f5800e00f5900e08f59000f003d00c8
:1055c0006044b8006055b8000000540081805c0061
:1055d00002015d0083815d001c0020000820e100c5
:1055e00009a8e1000ab0e1000bb8e1000d003d00a0
:1055f000190007000006eb000a0037000006eb0068
:10560000e00f5200e08f5a00e00f5b00e08f5b007c
:1056100004003d006044b8006055b8000e0007006b
:105620001c002000d3ff0700e00f560006003200e8
:105630006022b8006033b8000000520081805a0038
:1056400002015b0083815b004f0678004f05be00be
:105650004f04be00000006000402540085825c0076
:1056600006035d0087835d0000000600889fbe0082
:105670008a9fbe008c1f7800e00f5000e08f58001a
:10568000e00f5900e08f59000d003d006044b80064
:105690006055b8000000540081805c0002015d008c
:1056a00083815d001c0020000820e10009a8e100c2
:1056b0000ab0e1000bb8e1000d003d000800370022
:1056c0000006eb00e00f5200e08f5a00e00f5b0095
:1056d000e08f5b0006003d006044b8006055b800f4
:1056e0000402540085825c0006035d0087835d0030
:1056f000a7ff0700e00f5600060032006022b80046
:105700006033b8000000520081805a0002015b0043
:1057100083815b004f0678004f05be004f04be003a
:1057200000000600889fbe008a9fbe008c1f780084
:105730000006eb00e00f5000e08f5800e00f59002a
:10574000e08f590007003d006044b8006055b80084
:105750000000540081805c0002015d0083815d00d7
:105760001c002000e00f5200e08f5a00e00f5b00a9
:10577000e08f5b0007003d006044b8006055b80052
:105780000402540085825c0006035d0087835d008f
:105790000c00a20089000700e00f5600060032004e
:1057a0006022b8006033b8000000520081805a00c7
:1057b00002015b0083815b004f0678004f05be004d
:1057c0004f04be00000006000003be00f7f3070010
:1057d0006220e100020032000600be000500050064
:1057e000e507b100f107b20004f0230084807000e7
:1057f00007f0a70001f0a00024000500889fbe006c
:105800008a9fbe008c9fbe000404be000605be0039
:10581000809fbe00829fbe002f0007000406780014
:105820000800be000a01be002b00070084067800b5
:105830004f03be004f02be008d4f76007fb0970031
:1058400013003300f0ff2f008b8f6b0006003b002e
:105850000d0666000c00a7000a00370007f0a6003e
:10586000100020000a003700880f5200898f5a006c
:105870008a0f5b008b8f5b00030039001000200053
:1058800001003e000000200007f0a7000000ea0031
:105890004f06be004f05be004f04be0000000600cc
:1058a000e48240001078a300070032006402400048
:1058b0001178a3003400be001401be0004003200c1
:1058c0000330a700000006003500be001501be0031
:1058d0000330a0000000060005ff270005826100dc
:1058e000070032000428e100010032002400050016
:1058f0000600070001003a00440005000408050006
:1059000002000700f9ff3a00140005006f826100f1
:10591000810270008502710085027200000006009d
:10592000800078005002be005003be004439de0003
:10593000f700b200f37f200003016100090032008c
:105940000218e10016003a0085017200830173001d
:10595000838173000008200015003a0040002000f9
:105960001300370085017200830173008381730087
:1059700005003a0004a8be0006a8be0010002000e2
:105980000b0037000201e9000402420085824a0050
:1059900006034b0087834b000748a300f9ff320042
:1059a0000740a00004a8be0006a8be0020002000fa
:1059b000800098009200980000000600889fbe00ba
:1059c0008a9fbe008c9fbe000404b8000506b80084
:1059d0008904460060854e000606b8000a054600a8
:1059e000e0854e000706b8008b054600040eb8009f
:1059f000890446000a854e00e0854d00050eb8007a
:105a00000a0546008b854e00060eb8008b05460041
:105a10000416b8000a0546008b854e000516b8002e
:105a20008b054600041eb8008b0546000800be002a
:105a30000a01be004f06be004f05be004f04be0067
:045a4000000006005c
:020000040000fa
:020000040002f8
:04aff400031c00003a
:020000040000fa
:020000040002f8
:04aff8000f890000bd
:020000040000fa
:020000040002f8
:04affc007f3e000094
:020000040000fa
:102000001011040000000000c4550400000000008e
:10201000c455040000000000c45504000000000086
:10202000c455040000000000c45504000000000076
:10203000c455040000000000c45504000000000066
:10204000c455040000000000d84304000000000054
:10205000c455040000000000c45504000000000046
:10206000fe430400000000002444040000000000bf
:10207000c455040000000000c45504000000000026
:102080001430040000000000ee2f040000000000e7
:10209000c455040000000000c45504000000000006
:1020a000c455040000000000c455040000000000f6
:1020b000c455040000000000c455040000000000e6
:1020c000c455040000000000c455040000000000d6
:1020d000c455040000000000c455040000000000c6
:1020e0004a440400000000007044040000000000a6
:1020f000c45504000000000060300400000000002f
:102100003a30040000000000c45504000000000044
:10211000c455040000000000c45504000000000085
:10212000c455040000000000c45504000000000075
:10213000c455040000000000c45504000000000065
:10214000c455040000000000c45504000000000055
:10215000c455040000000000c45504000000000045
:10216000c455040000000000c45504000000000035
:10217000c455040000000000c45504000000000025
:10218000c455040000000000c45504000000000015
:10219000c455040000000000c45504000000000005
:1021a000c455040000000000c455040000000000f5
:1021b000c455040000000000ac3004000000000022
:1021c0008630040000000000c45504000000000038
:1021d000c455040000000000c455040000000000c5
:1021e000c455040000000000f830040000000000a6
:1021f000d230040000000000c455040000000000bc
:10220000c455040000000000c45504000000000094
:10221000c455040000000000c45504000000000084
:020000040000fa
:1000080004100000081000000c1000001010000080
:10001800141000000c1100000c1100000c1100005d
:10002800181000001c100000201000002410000010
:100038000c110000281000002c10000030100000e7
:1000480034100000381000003c1000004010000080
:1000580044100000481000000c1100000c110000b2
:100068004c10000050100000541000005810000000
:100078005c1000000c11000060100000641000000b
:100088000c110000681000006c10000070100000d7
:1000980074100000781000007c1000008010000030
:1000a80084100000881000000c1100000c110000e2
:1000b8000c1100008c10000090100000941000003b
:1000c800981000009c100000a0100000a410000070
:1000d800a8100000ac1000000c1100000c1100006a
:1000e8000c110000b0100000b41000000c1100004a
:1000f8000c110000b8100000bc1000000c1100002a
:100108000c1100000c1100000c1100000c11000073
:100118000c1100000c110000c01000000c110000b0
:100128000c110000c4100000c8100000cc10000022
:100138000c1100000c1100000c1100000c11000043
:10014800d01000000c1100000c1100000c11000070
:100158000c110000d41000000c1100000c1100005c
:100168000c110000d8100000dc100000e0100000a6
:10017800e4100000e8100000ec100000f01000008f
:10018800f4100000f8100000fc100000001100003e
:1001980004110000081100000c1100000c110000ef
:1001a8000c1100000c1100000c1100000c110000d3
:1001b8000c1100000c1100000c1100000c110000c3
:1001c8000c1100000c1100000c1100000c110000b3
:1001d8000c1100000c1100000c1100000c110000a3
:1001e8000c1100000c1100000c1100000c11000093
:0801f8000c1100000c110000c5
:020000040000fa
:105a440012010000000200000000000000400000fd
:105a54006666000003000000000000000102000070
:105a64000001000009020000120000000101000012
:105a740000a0000032090000040000000000000043
:105a8400ff000000ff000000040300000904000000
:105a94001a0300004f0000006c00000069000000c1
:105aa4006e00000020000000430000006f000000b2
:105ab4006c0000006c00000065000000670000003e
:105ac4006500000044030000450000006c00000075
:105ad4006500000063000000610000006e0000002b
:105ae40069000000730000006d00000073000000f6
:105af400200000004d000000690000006e0000005e
:105b04006900000070000000720000006f000000d7
:105b14006a000000650000006300000074000000db
:105b240020000000320000002000000046000000b9
:105b340069000000720000006d00000077000000a2
:105b4400610000007200000065000000486500006c
:105b54006c6c00006f200000576f0000726c000036
:105b64006421000000760000616c00003120000018
:105b74003d200000257500002c2000007661000007
:105b84006c320000203d000020250000750a000052
:105b940000740000696d0000657200002070000050
:105ba40065720000696f0000643a0000202500005f
:105bb400660a0000007400006f6600003a200000ce
:105bc400257500000a000000706900006e200000c6
:105bd400332000006869000067680000005400007a
:105be4004f460000203a00002025000075200000e8
:105bf40020200000200a0000000a00000a0a000019
:045c0400000000009c
:020000040000fa
:105c08000400fa00000f7800214798000000000007
:105c18001e007800100090009000780000202000fe
:105c280000806000e00f5000f9ff3a001e00780085
:105c3800a00090002e4090000080fb0080087800b3
:105c48000080fa00000006000200fa00000f780049
:105c5800000000001e00780010009000100078007e
:105c680061006000e00f5000faff32001e0078006b
:105c78003000900010007800004078000080fa00a2
:105c8800000006000400fa00000f78002147980081
:105c9800000000001e007800d01090001e00780060
:105ca80020109000808f5000faff32001e0078000c
:105cb800901090001e007800401090000080400076
:105cc800ae409000014878001e0078004010900017
:105cd8008000e8001e007800201090000001780085
:105ce800110009008280d8008000fd008000780043
:105cf8001e007800411098001e0078005010900097
:105d08008000e8001e007800511098001e007800fe
:105d1800d01090001e00780030189000808f50003e
:105d2800080039001e007800100090009e007800de
:105d3800910090001101780001402000810071005d
:105d4800010878000080fa00000006000400fa004c
:105d5800100798001e009000d00090001e009000d0
:105d680050009000100178001e00900060489000dc
:105d78000080fb00130020000018dd000080ea000e
:105d880000006100800878001e009000501090000c
:105d9800e00f500026003a001e009000100090000e
:105da8009e0090009100900011017800f1bf2f0033
:105db80081006100010878001e0037001e00900075
:105dc800901090001e00900030109000008040005d
:105dd800104f78001e009000301090008000e800fe
:105de8001e009000201090000001780011000900aa
:105df8008280d8008000fd00800078001e0090009e
:105e0800311098001e009000501090008000e900aa
:105e18001e009000511098001e0090002000900075
:105e28001e4178008280fb000108780001003700dd
:105e3800000000001e009000100090009000780004
:105e48000020200000806000e00f500004003a00ad
:105e58001e00900050109000e00f5000d7ff3a004d
:105e68000080fa00000006000400fa0010079800fd
:105e7800000000001e00900020189000e00f500065
:105e8800fcff32001e009000e01090001e00900001
:105e98000018900000804000104f78001e0090000d
:105ea800001890008000e8001e009000701090001c
:105eb80000017800110009008280d8008000fd00f0
:105ec800800078001e009000011898001e009000c5
:105ed800201890008000e9001e009000211898000a
:105ee8001e4078000080fa00000006000200fa0058
:105ef800000f78001e007800d00090001e00780087
:105f080050009000100178001e0078007048900042
:105f18000080fb00130020000018dd000080ea006c
:105f280000006100800878001b0037001e00780020
:105f3800e01090001e00780010189000808040004b
:105f48001e007800300090001000780000407800b3
:105f5800804878001e007800101890008000e80043
:105f68001e007800701090000001780011000900f0
:105f78008280d8008000fd00800078001e00780034
:105f8800111898001e007800201890008000e80082
:105f98001e007800211898001e007800100090005c
:105fa800100078006100600000407800e04f500069
:105fb800060032001e007800a01890001e0078002d
:105fc80070109000808f5000d8ff3a000080fa00cf
:105fd800000006003600f800809fbe00829fbe00c9
:105fe800849fbe00869fbe003200f800002020007b
:105ff800900188000000fa00809b200053ff0700f2
:106008000080fa003200f9004f03be004f02be00c4
:106018004f01be004f00be003600f90000400600e8
:106028003600f800809fbe00829fbe00849fbe009d
:10603800869fbe003200f8000020200090018800f2
:106048000000fa00809b2000a8ff07000080fa00eb
:106058003200f9004f03be004f02be004f01be00e0
:106068004f00be003600f900004006003600f80078
:10607800809fbe00829fbe00849fbe00869fbe0098
:106088003200f80000202000900188000000fa008b
:10609800409f20002dff07000080fa003200f90021
:1060a8004f03be004f02be004f01be004f00be00ae
:1060b8003600f900004006003600f800809fbe0058
:1060c800829fbe00849fbe00869fbe003200f800fb
:1060d80000202000900188000000fa00409f200066
:1060e80082ff07000080fa003200f9004f03be006b
:1060f8004f02be004f01be004f00be003600f9003f
:10610800004006003600f800809fbe00829fbe0057
:10611800849fbe00869fbe003200f8000020200049
:10612800900188000000fa0000a3200007ff070084
:106138000080fa003200f9004f03be004f02be0093
:106148004f01be004f00be003600f90000400600b7
:106158003600f800809fbe00829fbe00849fbe006c
:10616800869fbe003200f8000020200090018800c1
:106178000000fa0000a320005cff07000080fa007e
:106188003200f9004f03be004f02be004f01be00af
:106198004f00be003600f900004006003600f80047
:1061a800809fbe00829fbe00849fbe00869fbe0067
:1061b8003200f80000202000900188000000fa005a
:1061c800c0a62000e1fe07000080fa003200f900b6
:1061d8004f03be004f02be004f01be004f00be007d
:1061e8003600f900004006003600f800809fbe0027
:1061f800829fbe00849fbe00869fbe003200f800ca
:1062080000202000900188000000fa00c0a62000ad
:1062180036ff07000080fa003200f9004f03be0085
:106228004f02be004f01be004f00be003600f9000d
:10623800004006000800fa0010079800210798009f
:10624800320798001e009000e00f5000290035002a
:10625800e10f500003003400e20f50001300320039
:10626800250037000000eb00000f78000a00370017
:106278002e00900010407800ae0090008100e800e9
:10628800210798004255800080407800020078007d
:106298004d0407001e0fe8009e0078003e009000a5
:1062a800808f5000f2ff3900130037000000eb0028
:1062b800000f78000a0037002e0090001040780088
:1062c800ae0090008100e800210798005255800038
:1062d80080407800020078003b0407001e0fe800a9
:1062e8009e0078003e009000808f5000f2ff390039
:1062f80001003700000000003e0090000080fa0016
:10630800000006000000fa00af0b0700406d2000f7
:10631800801f78005701200086c0b3008082eb0000
:1063280064c0b3008001eb00022f2000212f200061
:10633800c0aa2000ba0c07008f87e900a06d2000d2
:10634800801f7800a70120000043eb008082eb004b
:1063580074c0b3008001eb00022f2000212f200021
:1063680020ac2000ae0c07008f87e9004000200019
:10637800801f780030002000801f780080c0b300a4
:10638800801f78000040eb00801f7800406a2000e2
:10639800801f7800406a2000801f7800b0c0b300da
:1063a800801f7800c0c0b300801f78004709200014
:1063b8004608200085222000642220004322200075
:1063c8002222200001222000809b20006b00070071
:1063d800f087570060002000801f780050002000e0
:1063e800801f780080c0b300801f78000040eb0059
:1063f800801f7800606a2000801f7800606a200093
:10640800801f7800e0c0b300801f7800f0c0b300a0
:10641800801f780067092000660820008523200077
:10642800642320004323200022232000012320008e
:10643800409f200051000700f0875700d00120003e
:10644800801f7800c0012000801f780080c0b30042
:10645800801f780080c0b300801f7800a06a2000e9
:10646800801f7800206a2000801f780020c0b300b9
:10647800801f780030c0b300801f7800e709200033
:10648800e6082000852520006425200043252000fb
:10649800222520000125200000a320003700070046
:1064a800f0875700f0012000801f7800e0012000ed
:1064b800801f780080c0b300801f78000040eb0088
:1064c800801f7800606b2000801f7800606b2000c0
:1064d800801f780080c0b300801f780090c0b30090
:1064e800801f7800e7092000e6082000852b20009f
:1064f800642b2000432b2000222b2000012b20009e
:10650800c0a620001d000700f08757000000eb0020
:10651800801f78000000eb00801f78000000eb006f
:10652800801f78000000eb00801f78000000eb005f
:10653800801f780010002000801f7800e5c4b30099
:1065480006002000676924000002eb008001eb00d0
:1065580022ac2000c1aa2000809b20007200070006
:10656800ec875700809b200040558800809b2000c6
:10657800505588000080fa00000006001000fa005c
:10658800000f780011079800220798003307980039
:106598004407980055079800660798007707980001
:1065a8001e0078009e009000010878001e00780008
:1065b800ae009000110098001e007800be00900008
:1065c800210098001e007800ce009000310098004d
:1065d8001e007800de009000410098001e00780040
:1065e800ee009000510098001e007800fe00900018
:1065f800610098001e0078008ef8970061489800a6
:106608001e007800eef09700714898001e00780090
:10661800aeb89700010898001e0078009eb8970051
:10662800110898001e0078008ef0970041509800dd
:106638001e007800eee89700515098001e00780080
:10664800eeb09700310898001e007800deb0970081
:10665800410898001e0078008000eb00510898005f
:106668001e0078008000eb00610898001e0078008a
:106678008000eb00710898001e0078008000eb0095
:10668800011098001e0078008000eb00111098009f
:106698001e0078008000eb00211098001e00780092
:1066a8008000eb00311098001e0078008000eb009d
:1066b800411098001e0078008000eb0051109800ef
:1066c8001e0078008000eb00611098001e00780022
:1066d8008000eb00711098001e0078008000eb002d
:1066e800011898001e0078008000eb00111898002f
:1066f8001e0078008000eb00211898001e0078002a
:1067080011002000311898001e0078008000eb006e
:10671800411898001e0078008000eb00511898007e
:106728000080fa00000006001000fa00881f7800b8
:10673800000f780011079800220798003307980087
:10674800440798005607980067079800654f980017
:106758001e007800100078008000eb000108780027
:106768001e00900060009000e10f40000e02320011
:106778002e00900060009000e10f40000c023200f3
:106788001e00900000089000e00f500069003a00d9
:106798002e00900000089000e00f500065003a00bd
:1067a8001e009000f10b07001e0090004c0c070023
:1067b8002e009000c60b07001e0078009e00900077
:1067c800510898001e0090009e007800010898006b
:1067d8001e0090008000eb00110898001e00900039
:1067e8008000eb00210898001e007800ae009000a1
:1067f800610898002e0090009e007800010898001b
:106808002e0090008000eb00110898002e009000e8
:106818008000eb0021089800113a8000f00b20005e
:1068280000816000600420007105200023742000ae
:106838008049780081497800824978001e009000dc
:10684800f00090001e009000700090001001780089
:106858001e009000204890000080fb00f3032000f9
:106868000018dd000080ea00000061008008780060
:106878001e009000f00090001e0090007000900034
:10688800100178001e007800b00990001e009000ea
:10689800204890000080fb000018dd000000710017
:1068a800800878001e007800800890001e0078009c
:1068b80000089000100178001e00780040509000f9
:1068c8000080fb00f30320000018dd000080ea00d0
:1068d80000006100800878001e00780080089000a1
:1068e8001e00780000089000100178002e0090002b
:1068f800e00190001e007800405090000080fb00ee
:106908000018dd000000710080087800113a80004e
:106918000004200000817000600420007105200040
:1069280023742000804978008149780082497800e2
:106938000a0037001e007800d00890001e00900062
:10694800808f50009c013a001e007800e0089000fb
:106958002e009000808f500099013a003e00900070
:10696800e00f5000870032004e009000e00f50000a
:10697800840032003e00900060009000e10f40006b
:10698800910132004e00900060009000e10f40003d
:106998008f0132003e00900000089000e00f500088
:1069a80069003a004e00900000089000e00f500087
:1069b80065003a003e0090006c0b07003e00900016
:1069c800c70b07004e009000410b07001e0078001f
:1069d800be009000710898003e0090009e0078006c
:1069e800010898003e0090008000eb001108980014
:1069f8003e0090008000eb00210898001e007800ff
:106a0800ce009000011098004e0090009e00780083
:106a1800010898004e0090008000eb0011089800d3
:106a28004e0090008000eb0021089800113a800089
:106a3800f00b200000816000600420007105200038
:106a480023742000804978008149780082497800c1
:106a58003e009000f00090003e0090007000900012
:106a6800100178003e009000204890000080fb0054
:106a7800f30320000018dd000080ea000000610038
:106a8800800878003e009000f00090003e009000e2
:106a980070009000100178001e007800c009900076
:106aa8003e009000204890000080fb000018dd00a8
:106ab80000007100800878001e007800900890009f
:106ac8001e00780010089000100178001e00780061
:106ad800505090000080fb00f30320000018dd00f8
:106ae8000080ea0000006100800878001e0078003d
:106af800900890001e00780010089000100178009f
:106b08004e009000e00190001e0078005050900068
:106b18000080fb000018dd0000007100800878008c
:106b2800113a8000000420000081700060042000f9
:106b3800710520002374200080497800814978007d
:106b4800824978000a0037001e007800f00890009b
:106b58003e009000808f50001f013a001e00780010
:106b6800801090004e009000808f50001c013a0069
:106b78001e0078001000780001202000010878002d
:106b8800060037003e009000e00f500016013a0062
:106b98004e009000e00f500015013a0018c0b300f5
:106ba8000240220043a724005e009000ee009000ff
:106bb800b7ee0700e00f500001003c000044eb0076
:106bc800e04f5400040032000040220041a7240096
:106bd800500798006107980018c0b30002402200cf
:106be800431724005e009000ee009000a6ee070018
:106bf800e00f5000010035000044eb00e04f540066
:106c08000400320000402200411724005007980079
:106c18006107980018c0b3000240220043272400ef
:106c28005e009000ee00900097ee0700e00f500025
:106c3800010034000044eb00e04f54000f00320024
:106c48001e007800400490005e019000ee01900064
:106c5800004022004197240049ee0700020020006e
:106c680003f02300e9ed07008bee07000000780031
:106c78000000e900000c7800150037001e007800bd
:106c8800100078009e00780091007800910078004c
:106c98000130a000010878001e0078004004900030
:106ca8005e019000ee0190000040220041a7240000
:106cb80033ee07000200200003f02300d3ed0700a5
:106cc80075ee0700000078000000e900000c78006d
:106cd800ee48900050c4b30080cf5000040032004a
:106ce800ee48900050c6b30080cf500008003a002c
:106cf8001e007800100078009e007800910078004f
:106d0800910078000110a0000108780018003700f1
:106d1800ee489000f0c4b30080cf50000400320069
:106d2800ee489000f0c6b30080cf500008003a004b
:106d38001e007800100078009e007800910078000e
:106d4800910078000120a0000108780008003700b1
:106d5800ee489000e0c4b30080cf50000400320039
:106d6800ee489000e0c6b30080cf5000a2003a0081
:106d78004eb89700e20f500008003a001e00780055
:106d8800100078009e00780091007800910078004b
:106d98000100a00001087800030037004eb89700f2
:106da800e10f500096003a002eb89700e00f50000f
:106db80004003a001e00780041e0220041189800c3
:106dc800360037001e007800100090009e00780002
:106dd80091009000110178000100220081007100eb
:106de800010878001e007800aeb8970011109800ce
:106df8001e0078009eb89700211098001e007800a9
:106e08008000eb00311098001e0078008000eb0035
:106e1800411098001e0078008000eb005110980087
:106e28001e007800beb89700311898001e00780040
:106e380061e42200411898001e007800d0009000fc
:106e48001e00780050009000100178001e007800a5
:106e5800604890000080fb00130020000018dd004f
:106e68000080ea0000006100800878001e007800b9
:106e7800e00090001e00780060009000100178008b
:106e88001e007800604890000080fb00130020007e
:106e98000018dd0000007100800878000eb8970027
:106ea800e00f500004003a001e00780081e2220042
:106eb800511898002b0037001e0078008eb89700f4
:106ec800611098001e007800feb0970071109800bd
:106ed8001e0078008000eb00011898001e00780062
:106ee8008000eb00111898001e0078008000eb006d
:106ef800211898001e00780081f32200511898008c
:106f08001e007800d00090001e007800500090000d
:106f1800100178001e007800704890000080fb0087
:106f2800130020000018dd000080ea000000610066
:106f3800800878001e007800e00090001e007800ad
:106f480060009000100178001e00780070489000e2
:106f58000080fb00130020000018dd000000710015
:106f6800800878001e007800100078009e007800e5
:106f7800910078001101780001002800810071005b
:106f8800010878001e007800100090009e0078002c
:106f980091009000110178000140200081007100eb
:106fa80001087800170037000000000015003700be
:106fb8000000000013003700000000001100370037
:106fc800000000000f003700000000000d0037002f
:106fd800000000000b003700000000000900370027
:106fe800000000000700370000000000050037001f
:106ff8000000000003003700000000000100370017
:10700800000000004f0478000080fa00000006002d
:107018000200fa00000f78001e00780010009000af
:107028009e0078009100900011017800f1bf2f00b8
:1070380081006100010878001e00780010007800c7
:107048008000eb00010878001e007800e000900046
:107058001e00780060009000100178001e00780083
:10706800604890000080fb00130020000018dd003d
:107078000080ea0000006100800878001e007800a7
:10708800e00090001e007800600090001001780079
:107098001e007800704890000080fb00130020005c
:1070a8000018dd000080ea00000061008008780018
:1070b8001e0078008000eb00411898001e00780040
:1070c8008000eb00511898001e00780050089000ce
:1070d800e00f50002f003200113a8000f00b200022
:1070e80000816000600420007105200023742000e6
:1070f8008049780081497800824978001e0078002c
:1071080050089000f00090001e0078005008900091
:1071180070009000100178001e0078005008900060
:10712800204890000080fb00f30320000018dd00d9
:107138000080ea000000610080087800113a8000b1
:107148000004200000817000600420007105200008
:1071580023742000804978008149780082497800aa
:107168001e007800500890008000eb00010898008d
:107178001e007800500890007c0907001e00780067
:1071880050089000d60907001e0078008000eb0028
:10719800510898001e00780060089000e00f500029
:1071a80028003200113a8000f00b200000816000b6
:1071b80060042000710520002374200080497800b5
:1071c80081497800824978001e0078008008900084
:1071d8001e00780000089000100178001e0078005a
:1071e800405090000080fb00f30320000018dd00f1
:1071f8000000710080087800113a80000004200027
:1072080000817000600420007105200023742000b4
:107218008049780081497800824978001e0078000a
:10722800600890008000eb00010898001e007800bc
:1072380060089000260907001e0078008000eb0017
:10724800610898001e00780070089000e00f500058
:107258002f003200113a8000f00b200000816000fe
:107268006004200071052000237420008049780004
:1072780081497800824978001e00780070089000e3
:10728800f00090001e0078007008900070009000d8
:10729800100178001e0078007008900020489000c7
:1072a8000080fb00f30320000018dd000080ea00e6
:1072b8000000610080087800113a80000004200076
:1072c80000817000600420007105200023742000f4
:1072d8008049780081497800824978001e0078004a
:1072e800700890008000eb00010898001e007800ec
:1072f800700890001d0907001e00780070089000b3
:10730800770907001e0078008000eb0071089800dc
:107318001e00780000109000e00f50002800320096
:10732800113a8000f00b200000816000600420000a
:107338007105200023742000804978008149780075
:10734800824978001e007800900890001e0078009e
:1073580010089000100178001e007800505090002e
:107368000080fb00f30320000018dd00000071001e
:1073780080087800113a8000000420000081700025
:1073880060042000710520002374200080497800e3
:1073980081497800824978001e007800001090002a
:1073a8008000eb00010898001e0078000010900093
:1073b800c70807001e0078008000eb000110980045
:1073c8000080fa00000006000400fa00000f7800b0
:1073d800214798001e00780040189000e00f5000e8
:1073e800050032001e00780040199000ae40900061
:1073f8001e007800020001000080fa00000006006c
:107408000200fa00000f78001e0078005018900063
:10741800e00f5000050032001e007800d0189000e0
:107428001e007800010001000100370000c0eb00d9
:107438000080fa00000006000200fa00000f780041
:107448001e00780010009000900078000040200096
:1074580000806000e00f500008003a001e0078002d
:10746800100090009e0078009100900011017800b3
:107478000140200081007100010878000080fa00b6
:10748800000006000400fa00000f780011079800b9
:10749800080037001e009000104078009e00900001
:1074a8008100e80011079800804078001e007800ed
:1074b800c5ff07001e00900010407800e04f500004
:1074c800f4ff3a001e007800dbff07000080fa0096
:1074d800000006000a00fa0020079800310798000b
:1074e800420798004e009000e00f500087003200dd
:1074f8004e009000e10f500004003a00be009000da
:107508000040eb008048780081003700b1c1b3002b
:107518002e009000acff070071c3b3002e0090004e
:10752800a9ff07002e009000c3ff07003e0090004f
:10753800100798004e009000000f780003003700f5
:107548000000000001003700000000002e0090003d
:10755800abff0700be009000804878003e00900016
:1075680010407800ed4f50000c003a00be0090002b
:107578000040eb0080487800a1c0b3002e009000c6
:1075880091ff0700d1c0b3002e0090008eff0700c6
:107598002e009000a8ff07005d0037003e00900015
:1075a80010407800fb4f500016003a00b1c1b300fc
:1075b8002e00900084ff070081c3b3002e009000c6
:1075c80081ff0700b1c1b3002e0090007eff0700c5
:1075d800b1c5b3002e0090007bff0700b1c4b30013
:1075e8002e00900078ff07002e00900092ff070001
:1075f8001e009000300798004e009000000f7800a1
:10760800410037003e00900010407800e84f5000dd
:10761800050032003e00900090407800f0c7b300ab
:1076280080cf50001a003a00be0090001e00900063
:10763800808f50001000360081c0b3002e009000eb
:1076480061ff070001c2b3002e0090005eff070033
:1076580081c0b3002e0090005bff07002e00900051
:1076680075ff07003e0090000000e9003007980011
:107678001e0fe8000500370071c0b3002e0090000f
:1076880051ff07002e0090006bff07001e00370017
:107698001e007800e10f500006003a0071c0b300e8
:1076a8002e00900048ff07002e00900062ff0700a0
:1076b800150037003e00900010407800ff4f500042
:1076c8009fff36003e00900090407800e0c7b3006e
:1076d80080cf50009cff3e003e0090001040780094
:1076e800804078002e00900037ff07002e009000a1
:1076f80051ff07003e0090000000e80030079800a6
:107708001e0fe90091ff370090ff370000000000ce
:107718000080fa00000006000400fa009424a80083
:107728000000eb00b0248800f00f200070248800cf
:107738009424a900a04a2000100798000040eb00fc
:10774800004f7800080037009e4078000180fb0059
:10775800000040009e009000008040008000eb0088
:10776800010878001e4fe8001e407800ef4f5000d7
:10777800f5ff3600d00020005025880000c4b30073
:1077880000eeb700a0b720001070880080c8b300d2
:1077980001eeb700a0bb20003070880080c0b300a5
:1077a80005eeb7000000eb00302588000000eb0074
:1077b8004025880000e020004800de00c024880042
:1077c8008644a80086e4a8008804a80094a4a90018
:1077d8000040eb0013ecb7000040eb0016ecb700dc
:1077e80010c0b30014ecb70000c0eb0006ecb70003
:1077f80000c0eb0007ecb70000000000a1248000e7
:107808000004200000806000e00f5000fbff3a00f9
:107818000080fa00000006000600fa0050248000ec
:1078280062006000e00f500005003200f00f2000f9
:107838007024880020002000502488008e00370023
:107848005024800064006000e00f50000300320004
:107858004000200050248800870037005024800012
:1078680070006000e00f50000300320000012000ab
